{
  "contractName": "VestingVault",
  "abi": [
    {
      "inputs": [
        {
          "internalType": "contract ERC20",
          "name": "_token",
          "type": "address"
        }
      ],
      "stateMutability": "nonpayable",
      "type": "constructor"
    },
    {
      "anonymous": false,
      "inputs": [
        {
          "indexed": true,
          "internalType": "address",
          "name": "recipient",
          "type": "address"
        }
      ],
      "name": "GrantAdded",
      "type": "event"
    },
    {
      "anonymous": false,
      "inputs": [
        {
          "indexed": false,
          "internalType": "address",
          "name": "recipient",
          "type": "address"
        },
        {
          "indexed": false,
          "internalType": "uint256",
          "name": "amountVested",
          "type": "uint256"
        },
        {
          "indexed": false,
          "internalType": "uint256",
          "name": "amountNotVested",
          "type": "uint256"
        }
      ],
      "name": "GrantRevoked",
      "type": "event"
    },
    {
      "anonymous": false,
      "inputs": [
        {
          "indexed": true,
          "internalType": "address",
          "name": "recipient",
          "type": "address"
        },
        {
          "indexed": false,
          "internalType": "uint256",
          "name": "amountClaimed",
          "type": "uint256"
        }
      ],
      "name": "GrantTokensClaimed",
      "type": "event"
    },
    {
      "anonymous": false,
      "inputs": [
        {
          "indexed": true,
          "internalType": "address",
          "name": "previousOwner",
          "type": "address"
        },
        {
          "indexed": true,
          "internalType": "address",
          "name": "newOwner",
          "type": "address"
        }
      ],
      "name": "OwnershipTransferred",
      "type": "event"
    },
    {
      "inputs": [],
      "name": "owner",
      "outputs": [
        {
          "internalType": "address",
          "name": "",
          "type": "address"
        }
      ],
      "stateMutability": "view",
      "type": "function",
      "constant": true
    },
    {
      "inputs": [],
      "name": "renounceOwnership",
      "outputs": [],
      "stateMutability": "nonpayable",
      "type": "function"
    },
    {
      "inputs": [],
      "name": "token",
      "outputs": [
        {
          "internalType": "contract ERC20",
          "name": "",
          "type": "address"
        }
      ],
      "stateMutability": "view",
      "type": "function",
      "constant": true
    },
    {
      "inputs": [
        {
          "internalType": "address",
          "name": "newOwner",
          "type": "address"
        }
      ],
      "name": "transferOwnership",
      "outputs": [],
      "stateMutability": "nonpayable",
      "type": "function"
    },
    {
      "inputs": [
        {
          "internalType": "address",
          "name": "_recipient",
          "type": "address"
        },
        {
          "internalType": "uint256",
          "name": "_amount",
          "type": "uint256"
        },
        {
          "internalType": "uint16",
          "name": "_vestingDurationInDays",
          "type": "uint16"
        },
        {
          "internalType": "uint16",
          "name": "_vestingCliffInDays",
          "type": "uint16"
        }
      ],
      "name": "addTokenGrant",
      "outputs": [],
      "stateMutability": "nonpayable",
      "type": "function"
    },
    {
      "inputs": [],
      "name": "claimVestedTokens",
      "outputs": [],
      "stateMutability": "nonpayable",
      "type": "function"
    },
    {
      "inputs": [
        {
          "internalType": "address",
          "name": "_recipient",
          "type": "address"
        }
      ],
      "name": "revokeTokenGrant",
      "outputs": [],
      "stateMutability": "nonpayable",
      "type": "function"
    },
    {
      "inputs": [
        {
          "internalType": "address",
          "name": "_recipient",
          "type": "address"
        }
      ],
      "name": "getGrantAmount",
      "outputs": [
        {
          "internalType": "uint256",
          "name": "",
          "type": "uint256"
        }
      ],
      "stateMutability": "view",
      "type": "function",
      "constant": true
    },
    {
      "inputs": [
        {
          "internalType": "address",
          "name": "_recipient",
          "type": "address"
        }
      ],
      "name": "calculateGrantClaim",
      "outputs": [
        {
          "internalType": "uint16",
          "name": "",
          "type": "uint16"
        },
        {
          "internalType": "uint256",
          "name": "",
          "type": "uint256"
        }
      ],
      "stateMutability": "view",
      "type": "function",
      "constant": true
    },
    {
      "inputs": [],
      "name": "fetchGrantData",
      "outputs": [
        {
          "internalType": "uint256",
          "name": "",
          "type": "uint256"
        }
      ],
      "stateMutability": "view",
      "type": "function",
      "constant": true
    }
  ],
  "bytecode": "0x608060405234801561001057600080fd5b506040516111b03803806111b08339818101604052602081101561003357600080fd5b505160006100486401000000006100ca810204565b60008054600160a060020a031916600160a060020a0383169081178255604051929350917f8be0079c531659141344cd1fd0a4f28419497f9722a3daafe3b4186f6b6457e0908290a350600160a060020a0381166100a557600080fd5b60018054600160a060020a031916600160a060020a03929092169190911790556100ce565b3390565b6110d3806100dd6000396000f3fe608060405234801561001057600080fd5b50600436106100a25760003560e060020a90048063e74f3fbb1161006a578063e74f3fbb14610171578063f2fde38b14610179578063f630ad1f1461019f578063fc0c546a146101a7578063fd75b8d4146101af576100a2565b80636d72c24e146100a7578063715018a6146100df57806384a198dc146100e95780638da5cb5b14610127578063ccb365b91461014b575b600080fd5b6100cd600480360360208110156100bd57600080fd5b5035600160a060020a03166101f3565b60408051918252519081900360200190f35b6100e7610211565b005b6100e7600480360360808110156100ff57600080fd5b50600160a060020a038135169060208101359061ffff604082013581169160600135166102c3565b61012f61065b565b60408051600160a060020a039092168252519081900360200190f35b6100e76004803603602081101561016157600080fd5b5035600160a060020a031661066a565b6100e76108de565b6100e76004803603602081101561018f57600080fd5b5035600160a060020a0316610ae5565b6100cd610bf0565b61012f610c06565b6101d5600480360360208110156101c557600080fd5b5035600160a060020a0316610c15565b6040805161ffff909316835260208301919091528051918290030190f35b600160a060020a031660009081526002602052604090206001015490565b610219610d77565b600054600160a060020a0390811691161461026c576040805160e560020a62461bcd028152602060048201819052602482015260008051602061107e833981519152604482015290519081900360640190fd5b60008054604051600160a060020a03909116907f8be0079c531659141344cd1fd0a4f28419497f9722a3daafe3b4186f6b6457e0908390a36000805473ffffffffffffffffffffffffffffffffffffffff19169055565b6102cb610d77565b600054600160a060020a0390811691161461031e576040805160e560020a62461bcd028152602060048201819052602482015260008051602061107e833981519152604482015290519081900360640190fd5b600160a060020a038416600090815260026020526040902060010154156103795760405160e560020a62461bcd0281526004018080602001828103825260288152602001806110356028913960400191505060405180910390fd5b610e428161ffff1611156103d7576040805160e560020a62461bcd02815260206004820152601b60248201527f436c6966662067726561746572207468616e2031302079656172730000000000604482015290519081900360640190fd5b6123a58261ffff161115610435576040805160e560020a62461bcd02815260206004820152601e60248201527f4475726174696f6e2067726561746572207468616e2032352079656172730000604482015290519081900360640190fd5b60006104458461ffff8516610d7b565b90506000811161049f576040805160e560020a62461bcd02815260206004820152601660248201527f616d6f756e74566573746564506572446179203e203000000000000000000000604482015290519081900360640190fd5b600154600160a060020a03166323b872dd6104b861065b565b6040805160e060020a63ffffffff8516028152600160a060020a039092166004830152306024830152604482018890525160648083019260209291908290030181600087803b15801561050a57600080fd5b505af115801561051e573d6000803e3d6000fd5b505050506040513d602081101561053457600080fd5b505161053f57600080fd5b610547610fc7565b6040518060c001604052808461ffff16620151800262ffffff16610569610dc6565b018152602080820188905261ffff808816604080850191909152600060608086018290526080808701839052600160a060020a03808f1660a098890181905280855260028089528686208b518155988b015160018a01558a8701519089018054958c01518916620100000263ffff0000199290991661ffff19909616959095171696909617909255870151600386015594860151600490940180549490951673ffffffffffffffffffffffffffffffffffffffff1990941693909317909355915192935090917f9a9851ada408f5d02ebd667e2ff6d5ff1a413d6a745d878e7cbbe00b42e6b23e9190a2505050505050565b600054600160a060020a031690565b610672610d77565b600054600160a060020a039081169116146106c5576040805160e560020a62461bcd028152602060048201819052602482015260008051602061107e833981519152604482015290519081900360640190fd5b600160a060020a038116600090815260026020526040812090806106e884610c15565b6003850154600186015492945090925060009161071091849161070a91610dca565b90610dca565b600154909150600160a060020a031663a9059cbb61072c61065b565b836040518363ffffffff1660e060020a0281526004018083600160a060020a0316815260200182815260200192505050602060405180830381600087803b15801561077657600080fd5b505af115801561078a573d6000803e3d6000fd5b505050506040513d60208110156107a057600080fd5b50516107ab57600080fd5b600154604080517fa9059cbb000000000000000000000000000000000000000000000000000000008152600160a060020a038881166004830152602482018690529151919092169163a9059cbb9160448083019260209291908290030181600087803b15801561081a57600080fd5b505af115801561082e573d6000803e3d6000fd5b505050506040513d602081101561084457600080fd5b505161084f57600080fd5b60008085556001850181905560028501805463ffffffff19169055600385015560048401805473ffffffffffffffffffffffffffffffffffffffff1916905560408051600160a060020a03871681526020810184905280820183905290517fc6870a34750128e89b4206e933b691be9b75add27afc68678e3bc9261d39f1449181900360600190a15050505050565b6000806108ea33610c15565b909250905080610944576040805160e560020a62461bcd02815260206004820152600b60248201527f5665737465642069732030000000000000000000000000000000000000000000604482015290519081900360640190fd5b336000908152600260208190526040909120908101546109729062010000900461ffff908116908516610e0c565b60028201805461ffff92909216620100000263ffff00001990921691909117905560038101546109a29083610e0c565b6003820155600154600480830154604080517fa9059cbb000000000000000000000000000000000000000000000000000000008152600160a060020a0392831693810193909352602483018690525192169163a9059cbb916044808201926020929091908290030181600087803b158015610a1c57600080fd5b505af1158015610a30573d6000803e3d6000fd5b505050506040513d6020811015610a4657600080fd5b5051610a9c576040805160e560020a62461bcd02815260206004820152600960248201527f6e6f20746f6b656e730000000000000000000000000000000000000000000000604482015290519081900360640190fd5b6004810154604080518481529051600160a060020a03909216917fc6cbb4aa8681b18644bf64921eea8f2b9f44cbd58d64fc07a110bfccc20382969181900360200190a2505050565b610aed610d77565b600054600160a060020a03908116911614610b40576040805160e560020a62461bcd028152602060048201819052602482015260008051602061107e833981519152604482015290519081900360640190fd5b600160a060020a038116610b885760405160e560020a62461bcd02815260040180806020018281038252602681526020018061100f6026913960400191505060405180910390fd5b60008054604051600160a060020a03808516939216917f8be0079c531659141344cd1fd0a4f28419497f9722a3daafe3b4186f6b6457e091a36000805473ffffffffffffffffffffffffffffffffffffffff1916600160a060020a0392909216919091179055565b3360009081526002602052604090206003015490565b600154600160a060020a031681565b600160a060020a03811660009081526002602052604081206001810154600382015483929111610c8f576040805160e560020a62461bcd02815260206004820152601360248201527f4772616e742066756c6c7920636c61696d656400000000000000000000000000604482015290519081900360640190fd5b8054610c99610dc6565b1015610cac576000809250925050610d72565b6000610cd062015180610cca6201518085600001540361070a610dc6565b90610d7b565b600283015490915061ffff168110610d16576000610cff83600301548460010154610dca90919063ffffffff16565b60029093015461ffff169450919250610d72915050565b6002820154600090610d3390839062010000900461ffff16610dca565b60028401546001850154919250600091610d509161ffff16610d7b565b90506000610d6261ffff841683610e69565b929650919450610d729350505050565b915091565b3390565b6000610dbd83836040518060400160405280601a81526020017f536166654d6174683a206469766973696f6e206279207a65726f000000000000815250610ec5565b90505b92915050565b4290565b6000610dbd83836040518060400160405280601e81526020017f536166654d6174683a207375627472616374696f6e206f766572666c6f770000815250610f6a565b600082820183811015610dbd576040805160e560020a62461bcd02815260206004820152601b60248201527f536166654d6174683a206164646974696f6e206f766572666c6f770000000000604482015290519081900360640190fd5b600082610e7857506000610dc0565b82820282848281610e8557fe5b0414610dbd5760405160e560020a62461bcd02815260040180806020018281038252602181526020018061105d6021913960400191505060405180910390fd5b60008183610f545760405160e560020a62461bcd0281526004018080602001828103825283818151815260200191508051906020019080838360005b83811015610f19578181015183820152602001610f01565b50505050905090810190601f168015610f465780820380516001836020036101000a031916815260200191505b509250505060405180910390fd5b506000838581610f6057fe5b0495945050505050565b60008184841115610fbf5760405160e560020a62461bcd028152602060048201818152835160248401528351909283926044909101919085019080838360008315610f19578181015183820152602001610f01565b505050900390565b6040518060c001604052806000815260200160008152602001600061ffff168152602001600061ffff168152602001600081526020016000600160a060020a03168152509056fe4f776e61626c653a206e6577206f776e657220697320746865207a65726f20616464726573734772616e7420616c7265616479206578697374732c206d757374207265766f6b652066697273742e536166654d6174683a206d756c7469706c69636174696f6e206f766572666c6f774f776e61626c653a2063616c6c6572206973206e6f7420746865206f776e6572a264697066735822122004b63f35a0c46b1a8fddce93afb5eb2c62cb22a270c3f980f1c2e82d7c1dd16364736f6c63430007040033",
  "immutableReferences": {},
  "source": "// SPDX-License-Identifier: MIT\n\n/*\nOriginal work taken from https://gist.github.com/rstormsf/7cfb0c6b7a835c0c67b4a394b4fd9383\nHas been amended to use openzepplin Ownable and now only supports one grant per address for simplicity.\n*/\npragma solidity >=0.6.0 <0.8.0;\n\nimport \"./ERC20.sol\";\nimport \"./SafeMath.sol\";\nimport \"./Ownable.sol\";\n\ncontract VestingVault is Ownable {\n    using SafeMath for uint256;\n    using SafeMath for uint16;\n\n    struct Grant {\n        uint256 startTime;\n        uint256 amount;\n        uint16 vestingDuration;\n        uint16 daysClaimed;\n        uint256 totalClaimed;\n        address recipient;\n    }\n\n    event GrantAdded(address indexed recipient);\n    event GrantTokensClaimed(address indexed recipient, uint256 amountClaimed);\n    event GrantRevoked(address recipient, uint256 amountVested, uint256 amountNotVested);\n\n    ERC20 public token;\n    \n    mapping (address => Grant) private tokenGrants;\n\n    constructor(ERC20 _token) {\n        require(address(_token) != address(0));\n        token = _token;\n    }\n    \n    function addTokenGrant(\n        address _recipient,\n        uint256 _amount,\n        uint16 _vestingDurationInDays,\n        uint16 _vestingCliffInDays    \n    ) \n        external\n        onlyOwner\n    {\n        require(tokenGrants[_recipient].amount == 0, \"Grant already exists, must revoke first.\");\n        require(_vestingCliffInDays <= 10*365, \"Cliff greater than 10 years\");\n        require(_vestingDurationInDays <= 25*365, \"Duration greater than 25 years\");\n        \n        uint256 amountVestedPerDay = _amount.div(_vestingDurationInDays);\n        require(amountVestedPerDay > 0, \"amountVestedPerDay > 0\");\n\n        // Transfer the grant tokens under the control of the vesting contract\n        require(token.transferFrom(owner(), address(this), _amount));\n\n        Grant memory grant = Grant({\n            startTime: currentTime() + _vestingCliffInDays * 1 days,\n            amount: _amount,\n            vestingDuration: _vestingDurationInDays,\n            daysClaimed: 0,\n            totalClaimed: 0,\n            recipient: _recipient\n        });\n        tokenGrants[_recipient] = grant;\n        emit GrantAdded(_recipient);\n    }\n\n    /// @notice Allows a grant recipient to claim their vested tokens. Errors if no tokens have vested\n    function claimVestedTokens() external {\n        uint16 daysVested;\n        uint256 amountVested;\n        (daysVested, amountVested) = calculateGrantClaim(msg.sender);\n        require(amountVested > 0, \"Vested is 0\");\n\n        Grant storage tokenGrant = tokenGrants[msg.sender];\n        tokenGrant.daysClaimed = uint16(tokenGrant.daysClaimed.add(daysVested));\n        tokenGrant.totalClaimed = uint256(tokenGrant.totalClaimed.add(amountVested));\n        \n        require(token.transfer(tokenGrant.recipient, amountVested), \"no tokens\");\n        emit GrantTokensClaimed(tokenGrant.recipient, amountVested);\n    }\n\n    /// @notice Terminate token grant transferring all vested tokens to the `_recipient`\n    /// and returning all non-vested tokens to the contract owner\n    /// Secured to the contract owner only\n    /// @param _recipient address of the token grant recipient\n    function revokeTokenGrant(address _recipient) \n        external \n        onlyOwner\n    {\n        Grant storage tokenGrant = tokenGrants[_recipient];\n        uint16 daysVested;\n        uint256 amountVested;\n        (daysVested, amountVested) = calculateGrantClaim(_recipient);\n\n        uint256 amountNotVested = (tokenGrant.amount.sub(tokenGrant.totalClaimed)).sub(amountVested);\n\n        require(token.transfer(owner(), amountNotVested));\n        require(token.transfer(_recipient, amountVested));\n\n        tokenGrant.startTime = 0;\n        tokenGrant.amount = 0;\n        tokenGrant.vestingDuration = 0;\n        tokenGrant.daysClaimed = 0;\n        tokenGrant.totalClaimed = 0;\n        tokenGrant.recipient = address(0);\n\n        emit GrantRevoked(_recipient, amountVested, amountNotVested);\n    }\n\n    function getGrantStartTime(address _recipient) private view returns(uint256) {\n        Grant storage tokenGrant = tokenGrants[_recipient];\n        return tokenGrant.startTime;\n    }\n\n    function getGrantAmount(address _recipient) public view returns(uint256) {\n        Grant storage tokenGrant = tokenGrants[_recipient];\n        return tokenGrant.amount;\n    }\n\n    /// @notice Calculate the vested and unclaimed months and tokens available for `_grantId` to claim\n    /// Due to rounding errors once grant duration is reached, returns the entire left grant amount\n    /// Returns (0, 0) if cliff has not been reached\n    function calculateGrantClaim(address _recipient) public view returns (uint16, uint256) {\n        Grant storage tokenGrant = tokenGrants[_recipient];\n\n        require(tokenGrant.totalClaimed < tokenGrant.amount, \"Grant fully claimed\");\n\n        // For grants created with a future start date, that hasn't been reached, return 0, 0\n        if (currentTime() < tokenGrant.startTime) {\n            return (0, 0);\n        }\n\n        // Check cliff was reached\n        uint elapsedDays = currentTime().sub(tokenGrant.startTime - 1 days).div(1 days);\n\n        // If over vesting duration, all tokens vested\n        if (elapsedDays >= tokenGrant.vestingDuration) {\n            uint256 remainingGrant = tokenGrant.amount.sub(tokenGrant.totalClaimed);\n            return (tokenGrant.vestingDuration, remainingGrant);\n        } else {\n            uint16 daysVested = uint16(elapsedDays.sub(tokenGrant.daysClaimed));\n            uint256 amountVestedPerDay = tokenGrant.amount.div(uint256(tokenGrant.vestingDuration));\n            uint256 amountVested = uint256(daysVested.mul(amountVestedPerDay));\n            return (daysVested, amountVested);\n        }\n    }\n\n    function currentTime() private view returns(uint256) {\n        return block.timestamp;\n    }\n\n    function fetchGrantData() public view returns(uint256){\n        Grant storage tokenGrant = tokenGrants[msg.sender];\n        return tokenGrant.totalClaimed;\n    }\n}",
  "sourcePath": "/home/taurinos/workspace/vestingVault/contracts/VestingVault.sol",
  "compiler": {
    "name": "solc",
    "version": "0.7.4+commit.3f05b770.Emscripten.clang"
  },
  "schemaVersion": "3.4.5",
  "updatedAt": "2022-03-18T17:03:17.575Z",
  "networkType": "ethereum",
  "devdoc": {
    "kind": "dev",
    "methods": {
      "owner()": {
        "details": "Returns the address of the current owner."
      },
      "renounceOwnership()": {
        "details": "Leaves the contract without owner. It will not be possible to call `onlyOwner` functions anymore. Can only be called by the current owner. NOTE: Renouncing ownership will leave the contract without an owner, thereby removing any functionality that is only available to the owner."
      },
      "revokeTokenGrant(address)": {
        "params": {
          "_recipient": "address of the token grant recipient"
        }
      },
      "transferOwnership(address)": {
        "details": "Transfers ownership of the contract to a new account (`newOwner`). Can only be called by the current owner."
      }
    },
    "version": 1
  },
  "userdoc": {
    "kind": "user",
    "methods": {
      "calculateGrantClaim(address)": {
        "notice": "Calculate the vested and unclaimed months and tokens available for `_grantId` to claim Due to rounding errors once grant duration is reached, returns the entire left grant amount Returns (0, 0) if cliff has not been reached"
      },
      "claimVestedTokens()": {
        "notice": "Allows a grant recipient to claim their vested tokens. Errors if no tokens have vested"
      },
      "revokeTokenGrant(address)": {
        "notice": "Terminate token grant transferring all vested tokens to the `_recipient` and returning all non-vested tokens to the contract owner Secured to the contract owner only"
      }
    },
    "version": 1
  }
}